:1000000005308A005C2D0000FF00030E8301A10073
:100010000A08A0008A010408A2007708A300780853
:10002000A4007908A5007A08A60003170D08031399
:10003000A70003170F080313A80003170C080313E6
:10004000A90003170E080313AA00831383128B1D44
:100050002B280B184C28220884002308F7002408BA
:10006000F8002508F9002608FA00270803178D0074
:100070000313280803178F000313290803178C00A4
:1000800003132A0803178E00031320088A00210E89
:100090008300FF0E7F0E09008A110A124F28831673
:1000A00006168312061A5E28AC08031D5B28013071
:1000B000AC00AD005D28AC01AD0138298316861671
:1000C0008312861A6B28AD0A2D08073C031D6A2887
:1000D0000130AD003829831606178312061BD62877
:1000E0002C0BD52801302D02FA3E0318D528063EE8
:1000F0003C29AE0A2E083C3C0319AE01D528AF0AB4
:100100002F083C3C0319AF01D528B00A3008183C31
:100110000319B001D528B10A31081F3C031DA328DB
:100120003208043C0319A0283208063C0319A02811
:100130003208093C0319A02832080B3C031DA328F0
:100140000130B100C7283208023C031DB228330831
:100150000339031DB22833081E3C031DB2280130A9
:10016000B100C7283208023C031DC12833080339F7
:100170000319C12831081D3C031DC1280130B100FD
:10018000C7283108203C031DC7280130B100D528FD
:10019000B20A32080D3C031DCF280130B200D52829
:1001A000B30A3308643C0319B30138298316861750
:1001B0008312861B382901302D02FA3E0318372995
:1001C000063E4629AE08031DE7283C30AE00AE03CC
:1001D0003729AF08031DEE283C30AF00AF033729A5
:1001E000B008031DF5281830B000B0033729B10B53
:1001F0000C293208043C031909293208063C03196A
:1002000009293208093C0319092932080B3C031D4E
:100210000C291E30B1002D293208023C031D1A2979
:1002200033080339031D1A29B108031D1A291D308B
:10023000B1002D293208023C031D28293308033957
:1002400003192829B108031D28291C30B1002D29C4
:10025000B108031D2D291F30B1003729B20B3229F7
:100260000C30B2003729B30B37296330B30038297B
:100270000B108A110A122B280A148A100A118207FD
:1002800079287F2885288B28C828D0280A148A1026
:100290000A118207E228E928F028F7282E293329B5
:1002A000D434ED320000C430F43200013A003A0098
:1002B0003A003A0020100001201000012010000137
:1002C00020100001201000012010000139308400AE
:1002D00083130008031979290630F800F701F70B9A
:1002E0006F29F80B6E297B30F700F70B7529800B0F
:1002F0006C2908003F187E2908127F2908168316EA
:1003000008128312BF188629881287298816831637
:10031000881283123F198E2908138F290817831614
:1003200008138312BF1996298813972988178316F3
:100330008813000083128815831688110230F70095
:10034000F70BA029A32900008312881183168811B6
:1003500083120800C0018316081600308312081AA1
:100360000130C0048316881600308312881A0130C9
:10037000F7000310F70D7708C00483160817003044
:100380008312081B0130F700F70DF70DFC30F7055D
:100390007708C0048316881700308312881B013049
:1003A000F700F70DF70DF70DF830F7057708C004E3
:1003B0004008F8000800831688118810081183127D
:1003C0008810831688100816881608178817831255
:1003D00008158316081100008312881583168811EA
:1003E00000008312AA217808BF00881183168811A3
:1003F00000008312881583168811FE29FF2900004A
:100400008312AA217808BE00881183168811081269
:1004100088120813881383123F0EF700F030F70597
:1004200077083E04F8007808BE00BE1F192A83161C
:10043000E329BC08031D1E2A88101F2A881483166E
:10044000881000008312081183160811000083121F
:1004500088118316881183123D0EBE000F30BE0531
:100460003E08BF007A213D080F39BE00BF007A2147
:1004700008002830B5000C30B6000130B700063057
:10048000B80088118316881183128810831688108B
:100490008312081183160811081288120813881392
:1004A0008811881008110F308312B90066210130BD
:1004B000B4003408033C031C652A0330BF007A21D2
:1004C0000530B9006621B40A592A0230BF007A21EA
:1004D0000530B9006621B4013408033C031C7C2AB2
:1004E00035303407840083130008B900BC01390893
:1004F000BD00DB21B40A6C2A8A110A12702D390B57
:10050000822A852A4030BA00862ABA010130380290
:10051000BA073A088038BB00BC013B08BD00DB21AC
:1005200008003708073A03199F2A0B3A0319A42A2F
:10053000063A0319AC2A023A0319B22AB72A013043
:10054000B800B9007F22BC2ABC010130BD00DB210C
:100550000230B9006621BC2A0130B8000230B9006F
:100560007F22BC2ABC011030BD00DB21BC2A013037
:10057000BC003708BD00DB2108000B08B4008B135A
:10058000831603178C170C1400000000831203134A
:10059000B41B8B1703170C087F390319112B031396
:1005A000B40003170D080313B50003170F08031356
:1005B000B6003408B7009122350803178D000313E5
:1005C000360803178F0003130B08B7008B1383162D
:1005D00003178C170C140000000083120313B71BC1
:1005E0008B1703170C0D0E0D7F390319112B0313F5
:1005F000B40003170D080313B50003170F08031306
:10060000B6003408B7009122350803178D00031394
:10061000360803178F008D0A03198F0A0313BD2AAA
:100620000317031308000830F8000430F700F70B35
:10063000172B8711AB112B08831687000330F700A7
:10064000F70B202B8312B70D0712031C2D2B2B1633
:100650002B0883168700312B83122B122B0883164D
:10066000870000008312AB152B08831687008312C6
:10067000871D382BF80B152B0430F700F70B3E2B9A
:100680008711AB112B0883168700000083122B16ED
:100690002B08831687000330F700F70B4D2B033030
:1006A000F700F70B512B8312AB152B08831687002D
:1006B0008312871D592BF8010330F700F70B5E2BCF
:1006C000071A78148711AB112B0883168700831241
:1006D00007122B122B0883168700831208002B1693
:1006E0002B08831687000430F700F70B752B831255
:1006F000AB152B08831687000330F700F70B7E2B12
:10070000831207122B122B08831687000430F70080
:10071000F70B882B83128711AB112B0883168700E8
:10072000D0308312B70013233408B70013232B12E1
:100730002B088316870000008312AB152B08831645
:1007400087008312871DA22B0430F700F70BA62B1E
:10075000A92B00002B162B08831687000430F70006
:10076000F70BB02B83122B162B088316870004304F
:10077000F700F70BB92B8312AB152B0883168700F4
:100780000330F700F70BC22B831207122B122B0832
:10079000831687000430F700F70BCC2B83128711E8
:1007A000AB112B0883168700D1308312B7001323B7
:1007B000F7010830B7007708B8002B162B0883160E
:1007C00087000330F700F70BE32B8312AB152B08E0
:1007D000831687008312871DEB2B071A0314071E4D
:1007E0000310F80D0430F700F70BF42BAB112B08B6
:1007F0008316870083128711B70BDD2B2B162B086E
:10080000831687000330F700F70B042C83120712BE
:1008100038080319102C2B122B088316870083121B
:100820000000AB152B08831687008312871D162C3A
:100830000430F700F70B1A2C8711AB112B08831625
:1008400087000330F700F70B232C831207122B12BB
:100850002B088316870078088312B5002B122B080B
:100860008316870000008312AB152B0883168700C0
:100870008312871D392C0430F700F70B3D2C402CD8
:1008800000002B162B08831687000430F700F70BA7
:10089000472C83123508F8000800350EB6000F30DB
:1008A000B60535080F39B7003608B9000A30BA0066
:1008B000F701F801390803103A18F707F70CF80C9C
:1008C000BA18F707F70CF80C3A19F707F70CF80CF9
:1008D000BA19F707F70CF80C3A1AF707F70CF80CE7
:1008E000BA1AF707F70CF80C3A1BF707F70CF80CD5
:1008F000BA1BF707F70CF80C37087807B800380868
:10090000F80008003908F801380203188A2C380862
:10091000F700962CF7010830BA00B80DF70D39082A
:1009200077020318F700F80DBA0B8D2C0800340875
:10093000B8000A30B90082247808B5003408B8003D
:100940000A30B90082247708B600350EF700F0307F
:10095000F70577083607B7003708F80008002B16A8
:100960002B08831687000430F700F70BB52C831291
:10097000AB152B08831687000330F700F70BBE2C4E
:10098000831207122B122B08831687000430F700FE
:10099000F70BC82C83128711AB112B088316870025
:1009A000D0308312B70013233508B700132336085D
:1009B000B70013232B122B08831687000000831225
:1009C000AB152B08831687008312871DE52C043096
:1009D000F700F70BE92CEC2C00002B162B088316E4
:1009E00087000430F700F70BF32C831208002E0861
:1009F000B40097247808B400B5017808B600AF2495
:100A00000530B90066212F08B40097247808B40097
:100A10000130B5007808B600AF240530B900662172
:100A20003008B40097247808B4000230B500780884
:100A3000B600AF240530B90066213108B400972410
:100A40007808B4000430B5007808B600AF2405304B
:100A5000B90066213208B40097247808B400053044
:100A6000B5007808B600AF240530B9006621330818
:100A7000B40097247808B4000630B5007808B600B2
:100A8000AF240530B90066218A110A12E02D34081E
:100A9000B8000A30B900822430307807B500B700BA
:100AA00091223408B8000A30B90082243030770728
:100AB000B500B7009122080003081F398300FF30FA
:100AC000AB00AC01AD0183161F149F141F159F11BD
:100AD00007309C00831383128B15C0308B04392A96
:100AE0000130B800B9007F22503003178D0001306B
:100AF0008F000313BD220130B8000230B9007F22FD
:100B0000533003178D0001308F000313BD22AC0852
:100B1000031DDD2DB4016F237808B400B5004D240A
:100B20007808AE00A630F700F70B942D00000130D6
:100B3000B4006F237808B400B5004D247808AF00E6
:100B4000A630F700F70BA22D00000230B4006F238F
:100B50007808B400B5004D247808B000A630F7003E
:100B6000F70BB02D00000430B4006F237808B400F8
:100B7000B5004D247808B100A630F700F70BBE2D64
:100B800000000530B4006F237808B400B5004D2490
:100B90007808B200A630F700F70BCC2D0000063025
:100BA000B4006F237808B400B5004D247808B30072
:100BB000A630F700F70BDA2D00002C0BE02DF72CF8
:100BC0000D30B8000130B9007F222E08B40047254F
:100BD0000A30B8000130B9007F222F08B400472541
:100BE000563003178D0001308F000313BD220730EC
:100BF000B8000130B9007F223008B40047255730D3
:100C000003178D0001308F000313BD220730B80099
:100C10000230B9007F223108B4004725583003174D
:100C20008D0001308F000313BD220A30B80002305E
:100C3000B9007F223208B4004725593003178D00D0
:100C400001308F000313BD220D30B8000230B9000F
:100C50007F223308B400472501302D02FA3E0318E5
:100C6000922E063E942E0D30B8000130B9007F223E
:100C70005A3003178D0001308F000313BD2201305D
:100C8000B9006621922E0A30B8000130B9007F22E7
:100C90005C3003178D0001308F000313BD2201303B
:100CA000B9006621922E0730B8000130B9007F22CA
:100CB0005E3003178D0001308F000313BD22013019
:100CC000B9006621922E0730B8000230B9007F22A9
:100CD000603003178D0001308F000313BD220130F7
:100CE000B9006621922E0A30B8000230B9007F2286
:100CF000623003178D0001308F000313BD220130D5
:100D0000B9006621922E0D30B8000230B9007F2262
:100D1000643003178D0001308F000313BD220130B2
:100D2000B9006621872D63000A108A140A1582070C
:0C0D3000332E432E532E632E732E832E81
:02400E003A3F37
:00000001FF
;PIC16F877A
;CRC=DA8C  CREATED="15-Nov-16 22:36"
